{
  "_format": "hh-sol-artifact-1",
  "contractName": "Counter",
  "sourceName": "contracts/Counter.sol",
  "abi": [
    {
      "inputs": [
        {
          "internalType": "uint256",
          "name": "_counter",
          "type": "uint256"
        }
      ],
      "stateMutability": "nonpayable",
      "type": "constructor"
    },
    {
      "inputs": [],
      "name": "getCounter",
      "outputs": [
        {
          "internalType": "uint256",
          "name": "",
          "type": "uint256"
        }
      ],
      "stateMutability": "view",
      "type": "function"
    },
    {
      "inputs": [],
      "name": "increment",
      "outputs": [],
      "stateMutability": "nonpayable",
      "type": "function"
    }
  ],
  "bytecode": "0x6080604052348015600f57600080fd5b5060405161020e38038061020e8339818101604052810190602f91906071565b80600081905550506099565b600080fd5b6000819050919050565b6051816040565b8114605b57600080fd5b50565b600081519050606b81604a565b92915050565b6000602082840312156084576083603b565b5b6000609084828501605e565b91505092915050565b610166806100a86000396000f3fe608060405234801561001057600080fd5b50600436106100365760003560e01c80638ada066e1461003b578063d09de08a14610059575b600080fd5b610043610063565b604051610050919061009e565b60405180910390f35b61006161006c565b005b60008054905090565b60008081548092919061007e906100e8565b9190505550565b6000819050919050565b61009881610085565b82525050565b60006020820190506100b3600083018461008f565b92915050565b7f4e487b7100000000000000000000000000000000000000000000000000000000600052601160045260246000fd5b60006100f382610085565b91507fffffffffffffffffffffffffffffffffffffffffffffffffffffffffffffffff8203610125576101246100b9565b5b60018201905091905056fea2646970667358221220132b817c014e4b4001f1b6bc03806ca249166ef5e84bc2696516258cf7d3b53d64736f6c634300081c0033",
  "linkReferences": {},
  "deployedLinkReferences": {}
}